:1000000012C02DC073C02AC029C028C027C026C076
:1000100025C08FC023C022C021C020C01FC01EC069
:100020001DC01CC01BC011241FBECFE5D4E0DEBF25
:10003000CDBF10E0A0E6B0E0E2E3F2E002C0059040
:100040000D92A636B107D9F710E0A6E6B0E001C0E0
:100050001D92A736B107E1F792D0E9C0D1CF1F9228
:100060000F920FB60F9211242F938F939F93809B23
:1000700008C080916000882369F080916000815001
:1000800007C080916000803228F4809160008F5F0B
:10009000809360001092630080916000823158F07C
:1000A00080916000880F880F845480936300809152
:1000B0006300806811C0809160008F3078F42091D7
:1000C00060008FE090E0821B9109880F880F809379
:1000D0006300809163008064809363009F918F919F
:1000E0002F910F900FBE0F901F9018951F920F9297
:1000F0000FB60F9211248F93849B08C080916100EA
:10010000882369F080916100815007C0809161006F
:10011000823128F4809161008F5F8093610080912B
:100120006100809364008F910F900FBE0F901F901D
:1001300018951F920F920FB60F9211248F93EF9381
:10014000FF935D9BFECFE0916600F0E0EE59FF4F1C
:1001500080818CB983E682BF809166008F5F809337
:10016000660080916600843010F010926600FF9166
:10017000EF918F910F900FBE0F901F90189517BAA7
:100180008FE388BB11BA80EE82BB8FE084BB80EB2B
:1001900085BB85B78A6085BF8BB7806C8BBF10BC71
:1001A00087E689B91BB81AB8539A86EA80BD89B721
:1001B000816089BF83B7856083BF83E682BF89E0A2
:1001C00080936100479A789499E020E186B3809506
:1001D00080936500869906C0869BFECF909364004D
:1001E00090936100879906C0879BFECF10926300B1
:1001F0002093600080916000882319F0803229F4F8
:1002000002C0A99A05C0A89A03C085B38C7F85BB9C
:1002100080916100882319F0823129F402C0AB9AE1
:10022000D5CFAA9AD3CF85B3837F85BBCFCFF894A0
:02023000FFCFFE
:060232001009F0000900B4
:00000001FF
