:1000000012C02CC02BC02AC029C028C027C026C0BF
:1000100025C085C023C023C021C020C01FC01EC072
:100020001DC01CC01BC011241FBECFE5D4E0DEBF25
:10003000CDBF10E0A0E6B0E0E8EBF2E002C0059032
:100040000D92A436B107D9F710E0A4E6B0E001C0E4
:100050001D92AB36B107E1F78DD02CC1D1CF1F92E5
:100060000F920FB60F9211242F938F939F9380912D
:100070006000882359F02BE088E190E00FB6F894F7
:10008000A89581BD0FBE21BD109260008BB18C710F
:1000900011F404C08CB15F99FDCF39C08CB190913F
:1000A0006500992349F4803F91F5809165008F5F49
:1000B00080936500A8952BC0803F39F19091650031
:1000C0009230A1F09330A9F09130B1F486FF02C0D4
:1000D00097E003C087FF04C094E09093640002C0DF
:1000E000109264008F738093610006C08093620059
:1000F00003C08F7380936600809165008F5F80934B
:10010000650080916500843010F0109265009F9129
:100110008F912F910F900FBE0F901F9018951F92E7
:100120000F920FB60F9211248F939F9380916800C6
:100130008F5F80936800809168008A30A1F41092EC
:100140006800C4981092690080916700882359F074
:1001500080916700813021F482B390E4892702C046
:1001600082B3805882BB9F918F910F900FBE0F90EA
:100170001F90189588E10FB6F89481BD11BC0FBE91
:100180008FE187BB80EE88BB8FE384BB15BA90EC10
:1001900091BB82BB1FBC1EBC8EB58C618EBD8FB562
:1001A00082608FBD8CE390E097BD86BD1BBC1ABCFE
:1001B00019BC18BC87E183BD15BC85B58F6685BDAC
:1001C00010BC87E689B91BB81AB88AB180698AB9A8
:1001D00086EA80BD89E080936200479A12BE89B7A3
:1001E000816089BF83B7856083BF789421E032E066
:1001F00080916200825F83BD80916400843089F0C9
:100200008730D9F0882321F51BBC1ABC8AB59BB571
:1002100099BD88BD8FB58F758FBD88B38E7E88BB25
:1002200017C019BC18BC8091610090E09BBD8ABDCD
:100230008FB5806A8FBDC0980BC01BBC1ABC809163
:10024000610090E099BD88BD8FB5806A8FBDC09A6E
:1002500090916A0080916100891718F420936900D9
:10026000C49A8091610080936A008091660085BB8A
:1002700080916200882321F080916200823179F4BC
:1002800080916700882309F0B3CF809162008823B2
:1002900019F420936700ACCF30936700A9CF809109
:1002A0006700882309F4A4CF1092670082B38F738C
:0802B00082BB9ECFF894FFCF42
:0402B80001400900F8
:040000050080006017
:00000001FF
